:1000000012C024C023C022C021C020C01FC01EC0F7
:100010001DC01CC01BC01AC019C018C017C016C014
:1000200015C014C013C011241FBECFE5D4E0DEBF3D
:10003000CDBF10E0A0E6B0E0E6E0F1E002C0059040
:100040000D92AA36B107D9F742D05BC0D9CF88E16B
:100050008AB986E880BD83E389B908958CB95E9B2F
:10006000FECF0895CF93DF93EC018881882371F050
:100070002196F4DF2FEF80E792E0215080409040FE
:10008000E1F700C0000089918111F3CFDF91CF919A
:1000900008955F9BFECF8CB10895EF92FF920F936E
:1000A0001F93CF93DF93E82EF92EC82FD92F8E01FF
:1000B000F0DF89938D30D9F7F80111828E2D9F2DB5
:1000C000DF91CF911F910F91FF90EF900895CF9303
:1000D000DF93CDB7DEB764970FB6F894DEBF0FBEDF
:1000E000CDBF8FEF87BBB3DF80E690E0BBDF8FEC47
:1000F00097E00197F1F700C00000CE010196CDDF37
:06010000F3CFF894FFCFDD
:0A010600456E746572203A20000077
:00000001FF
