S01B0000554152545F776974685F496E746572727570742E7372656386
S113000012C021C020C01FC01EC01DC01CC01BC008
S11300101AC019C018C027C016C015C014C013C018
S113002012C011C010C011241FBECFE5D4E0DEBF42
S1130030CDBF20E0A0E6B0E001C01D92A539B20713
S1130040E1F70DD042C0DCCF82E08BB98FE18AB9F1
S113005086E880BD78948CE089B910BC08958FEF50
S113006087BBF2DFFFCF1F920F920FB60F921124BE
S11300702F938F939F93EF93FF932CB12093600062
S11300802D3061F4E0919300F0919400EF59FF4F0B
S1130090108210929400109293000DC080919300EE
S11300A090919400FC01EF59FF4F208301969093A7
S11300B0940080939300FF91EF919F918F912F91E2
S11100C00F900FBE0F901F901895F894FFCF6D
S9030000FC
