:1000000012C019C018C017C016C015C014C013C044
:1000100012C011C010C00FC00EC00DC00CC00BC06C
:100020000AC009C008C011241FBECFE5D4E0DEBF5E
:10003000CDBF28D054C0E4CF10B88CE080B908956B
:1000400084EA86BF06B607FEFDCF81B1887F88307F
:10005000E1F7089583B984E886BF06B607FEFDCFB1
:1000600081B1887F8831E1F7089583B984E886BF3C
:1000700006B607FEFDCF81B1887F8832E1F781E0C7
:1000800088BB0895D9DFC4E9DBDF2FEF89E698E16B
:10009000215080409040E1F700C0000080E2DADFAC
:1000A0002FEF89E698E1215080409040E1F700C0B1
:1000B000000084E4DADF2FEF89E698E121508040E8
:1000C0009040E1F700C00000C6BF2FEF89E698E13D
:1000D000215080409040E1F700C00000D5CFF89457
:0200E000FFCF50
:00000001FF
